{
  "contractName": "Okonomi",
  "abi": [
    {
      "constant": true,
      "inputs": [
        {
          "name": "",
          "type": "uint256"
        }
      ],
      "name": "posts",
      "outputs": [
        {
          "name": "postId",
          "type": "uint256"
        },
        {
          "name": "like",
          "type": "uint256"
        },
        {
          "name": "dislike",
          "type": "uint256"
        },
        {
          "name": "station",
          "type": "string"
        },
        {
          "name": "fromLine",
          "type": "string"
        },
        {
          "name": "toLine",
          "type": "string"
        }
      ],
      "payable": false,
      "stateMutability": "view",
      "type": "function"
    },
    {
      "constant": true,
      "inputs": [
        {
          "name": "",
          "type": "uint256"
        }
      ],
      "name": "steps",
      "outputs": [
        {
          "name": "postId",
          "type": "uint256"
        },
        {
          "name": "stepId",
          "type": "uint256"
        },
        {
          "name": "comment",
          "type": "string"
        },
        {
          "name": "photo",
          "type": "string"
        }
      ],
      "payable": false,
      "stateMutability": "view",
      "type": "function"
    },
    {
      "inputs": [],
      "payable": false,
      "stateMutability": "nonpayable",
      "type": "constructor"
    },
    {
      "constant": false,
      "inputs": [
        {
          "name": "_station",
          "type": "string"
        },
        {
          "name": "_toLine",
          "type": "string"
        },
        {
          "name": "_fromLine",
          "type": "string"
        }
      ],
      "name": "search",
      "outputs": [
        {
          "components": [
            {
              "name": "postId",
              "type": "uint256"
            },
            {
              "name": "like",
              "type": "uint256"
            },
            {
              "name": "dislike",
              "type": "uint256"
            },
            {
              "name": "station",
              "type": "string"
            },
            {
              "name": "fromLine",
              "type": "string"
            },
            {
              "name": "toLine",
              "type": "string"
            }
          ],
          "name": "",
          "type": "tuple"
        }
      ],
      "payable": false,
      "stateMutability": "nonpayable",
      "type": "function"
    }
  ],
  "bytecode": "0x60806040523480156200001157600080fd5b50600160806040519081016040528060008152602001600081526020016040805190810160405280600c81526020017f6669727374436f6d6d656e74000000000000000000000000000000000000000081525081526020016040805190810160405280600981526020017f666972737450686f7400000000000000000000000000000000000000000000008152508152509080600181540180825580915050906001820390600052602060002090600402016000909192909190915060008201518160000155602082015181600101556040820151816002019080519060200190620000ff929190620004c3565b5060608201518160030190805190602001906200011e929190620004c3565b50505050600160806040519081016040528060008152602001600181526020016040805190810160405280600d81526020017f7365636f6e64436f6d6d656e740000000000000000000000000000000000000081525081526020016040805190810160405280600a81526020017f7365636f6e6450686f740000000000000000000000000000000000000000000081525081525090806001815401808255809150509060018203906000526020600020906004020160009091929091909150600082015181600001556020820151816001015560408201518160020190805190602001906200020f929190620004c3565b5060608201518160030190805190602001906200022e929190620004c3565b50505050600160806040519081016040528060008152602001600281526020016040805190810160405280600c81526020017f7468697264436f6d6d656e74000000000000000000000000000000000000000081525081526020016040805190810160405280600981526020017f746869726450686f74000000000000000000000000000000000000000000000081525081525090806001815401808255809150509060018203906000526020600020906004020160009091929091909150600082015181600001556020820151816001015560408201518160020190805190602001906200031f929190620004c3565b5060608201518160030190805190602001906200033e929190620004c3565b50505050600060c0604051908101604052806000815260200160008152602001600081526020016040805190810160405280600c81526020017fe6ba9ce6b1a0e5b1b1e78e8b000000000000000000000000000000000000000081525081526020016040805190810160405280600981526020017fe98a80e5baa7e7b79a000000000000000000000000000000000000000000000081525081526020016040805190810160405280600981526020017fe58d97e58c97e7b79a00000000000000000000000000000000000000000000008152508152509080600181540180825580915050906001820390600052602060002090600602016000909192909190915060008201518160000155602082015181600101556040820151816002015560608201518160030190805190602001906200047b929190620004c3565b5060808201518160040190805190602001906200049a929190620004c3565b5060a0820151816005019080519060200190620004b9929190620004c3565b5050505062000572565b828054600181600116156101000203166002900490600052602060002090601f016020900481019282601f106200050657805160ff191683800117855562000537565b8280016001018555821562000537579182015b828111156200053657825182559160200191906001019062000519565b5b5090506200054691906200054a565b5090565b6200056f91905b808211156200056b57600081600090555060010162000551565b5090565b90565b610e2080620005826000396000f300608060405260043610610057576000357c0100000000000000000000000000000000000000000000000000000000900463ffffffff1680630b1e7f831461005c5780637217e0b91461009e578063b88cc372146100de575b600080fd5b34801561006857600080fd5b50610083600480360361007e9190810190610b2b565b61011b565b60405161009596959493929190610ca5565b60405180910390f35b3480156100aa57600080fd5b506100c560048036036100c09190810190610b2b565b61032e565b6040516100d59493929190610c52565b60405180910390f35b3480156100ea57600080fd5b5061010560048036036101009190810190610a94565b61049d565b6040516101129190610c30565b60405180910390f35b60008181548110151561012a57fe5b9060005260206000209060060201600091509050806000015490806001015490806002015490806003018054600181600116156101000203166002900480601f0160208091040260200160405190810160405280929190818152602001828054600181600116156101000203166002900480156101e85780601f106101bd576101008083540402835291602001916101e8565b820191906000526020600020905b8154815290600101906020018083116101cb57829003601f168201915b505050505090806004018054600181600116156101000203166002900480601f0160208091040260200160405190810160405280929190818152602001828054600181600116156101000203166002900480156102865780601f1061025b57610100808354040283529160200191610286565b820191906000526020600020905b81548152906001019060200180831161026957829003601f168201915b505050505090806005018054600181600116156101000203166002900480601f0160208091040260200160405190810160405280929190818152602001828054600181600116156101000203166002900480156103245780601f106102f957610100808354040283529160200191610324565b820191906000526020600020905b81548152906001019060200180831161030757829003601f168201915b5050505050905086565b60018181548110151561033d57fe5b9060005260206000209060040201600091509050806000015490806001015490806002018054600181600116156101000203166002900480601f0160208091040260200160405190810160405280929190818152602001828054600181600116156101000203166002900480156103f55780601f106103ca576101008083540402835291602001916103f5565b820191906000526020600020905b8154815290600101906020018083116103d857829003601f168201915b505050505090806003018054600181600116156101000203166002900480601f0160208091040260200160405190810160405280929190818152602001828054600181600116156101000203166002900480156104935780601f1061046857610100808354040283529160200191610493565b820191906000526020600020905b81548152906001019060200180831161047657829003601f168201915b5050505050905084565b6104a56109f3565b60008090505b6000805490508110156109ea576000818154811015156104c757fe5b906000526020600020906006020160030160405180828054600181600116156101000203166002900480156105335780601f10610511576101008083540402835291820191610533565b820191906000526020600020905b81548152906001019060200180831161051f575b5050915050604051809103902060001916856040518082805190602001908083835b60208310151561057a5780518252602082019150602081019050602083039250610555565b6001836020036101000a0380198251168184511680821785525050505050509050019150506040518091039020600019161480156106a857506000818154811015156105c257fe5b9060005260206000209060060201600401604051808280546001816001161561010002031660029004801561062e5780601f1061060c57610100808354040283529182019161062e565b820191906000526020600020905b81548152906001019060200180831161061a575b5050915050604051809103902060001916836040518082805190602001908083835b6020831015156106755780518252602082019150602081019050602083039250610650565b6001836020036101000a038019825116818451168082178552505050505050905001915050604051809103902060001916145b80156107a457506000818154811015156106be57fe5b9060005260206000209060060201600501604051808280546001816001161561010002031660029004801561072a5780601f1061070857610100808354040283529182019161072a565b820191906000526020600020905b815481529060010190602001808311610716575b5050915050604051809103902060001916846040518082805190602001908083835b602083101515610771578051825260208201915060208101905060208303925061074c565b6001836020036101000a038019825116818451168082178552505050505050905001915050604051809103902060001916145b156109dd576000818154811015156107b857fe5b906000526020600020906006020160c06040519081016040529081600082015481526020016001820154815260200160028201548152602001600382018054600181600116156101000203166002900480601f0160208091040260200160405190810160405280929190818152602001828054600181600116156101000203166002900480156108895780601f1061085e57610100808354040283529160200191610889565b820191906000526020600020905b81548152906001019060200180831161086c57829003601f168201915b50505050508152602001600482018054600181600116156101000203166002900480601f01602080910402602001604051908101604052809291908181526020018280546001816001161561010002031660029004801561092b5780601f106109005761010080835404028352916020019161092b565b820191906000526020600020905b81548152906001019060200180831161090e57829003601f168201915b50505050508152602001600582018054600181600116156101000203166002900480601f0160208091040260200160405190810160405280929190818152602001828054600181600116156101000203166002900480156109cd5780601f106109a2576101008083540402835291602001916109cd565b820191906000526020600020905b8154815290600101906020018083116109b057829003601f168201915b50505050508152505091506109eb565b80806001019150506104ab565b5b509392505050565b60c0604051908101604052806000815260200160008152602001600081526020016060815260200160608152602001606081525090565b600082601f8301121515610a3d57600080fd5b8135610a50610a4b82610d48565b610d1b565b91508082526020830160208301858383011115610a6c57600080fd5b610a77838284610d93565b50505092915050565b6000610a8c8235610d89565b905092915050565b600080600060608486031215610aa957600080fd5b600084013567ffffffffffffffff811115610ac357600080fd5b610acf86828701610a2a565b935050602084013567ffffffffffffffff811115610aec57600080fd5b610af886828701610a2a565b925050604084013567ffffffffffffffff811115610b1557600080fd5b610b2186828701610a2a565b9150509250925092565b600060208284031215610b3d57600080fd5b6000610b4b84828501610a80565b91505092915050565b6000610b5f82610d74565b808452610b73816020860160208601610da2565b610b7c81610dd5565b602085010191505092915050565b600060c083016000830151610ba26000860182610c21565b506020830151610bb56020860182610c21565b506040830151610bc86040860182610c21565b5060608301518482036060860152610be08282610b54565b91505060808301518482036080860152610bfa8282610b54565b91505060a083015184820360a0860152610c148282610b54565b9150508091505092915050565b610c2a81610d7f565b82525050565b60006020820190508181036000830152610c4a8184610b8a565b905092915050565b6000608082019050610c676000830187610c21565b610c746020830186610c21565b8181036040830152610c868185610b54565b90508181036060830152610c9a8184610b54565b905095945050505050565b600060c082019050610cba6000830189610c21565b610cc76020830188610c21565b610cd46040830187610c21565b8181036060830152610ce68186610b54565b90508181036080830152610cfa8185610b54565b905081810360a0830152610d0e8184610b54565b9050979650505050505050565b6000604051905081810181811067ffffffffffffffff82111715610d3e57600080fd5b8060405250919050565b600067ffffffffffffffff821115610d5f57600080fd5b601f19601f8301169050602081019050919050565b600081519050919050565b6000819050919050565b6000819050919050565b82818337600083830152505050565b60005b83811015610dc0578082015181840152602081019050610da5565b83811115610dcf576000848401525b50505050565b6000601f19601f83011690509190505600a265627a7a72305820bf61d2338aa878a9ba113fb2b5f6fbf9ead9c187ecd9d016db300e43b60938a06c6578706572696d656e74616cf50037",
  "source": "pragma solidity ^0.4.23;\npragma experimental ABIEncoderV2;\n\n\ncontract Okonomi {\n    struct Post {\n        uint postId;\n        uint like;\n        uint dislike;\n        string station;\n        string fromLine;\n        string toLine;\n    }\n\n    Post[] public posts;\n\n    struct Step {\n        uint postId;\n        uint stepId;\n        string comment;\n        string photo;\n    }\n\n    Step[] public steps;\n\n    constructor() public {\n        steps.push(Step(0, 0, \"firstComment\", \"firstPhot\"));\n        steps.push(Step(0, 1, \"secondComment\", \"secondPhot\"));\n        steps.push(Step(0, 2, \"thirdComment\", \"thirdPhot\"));\n\n        posts.push(Post(0, 0, 0, \"溜池山王\", \"銀座線\", \"南北線\")); \n    }\n\n    function search(string _station, string _toLine, string _fromLine) public returns (Post) {\n        for (uint i = 0; i < posts.length; i++) {\n            if (keccak256(_station) == keccak256(posts[i].station)\n                && keccak256(_fromLine) == keccak256(posts[i].fromLine)\n                && keccak256(_toLine) == keccak256(posts[i].toLine)) {\n                \n                return posts[i];\n\n            }\n        }\n    }\n\n\n}\n",
  "sourcePath": "/Users/mikiryouga/crypto/prog/okonomi/truffle/contracts/Okonomi.sol",
  "compiler": {
    "name": "solc",
    "version": "0.4.23+commit.124ca40d.Emscripten.clang"
  },
  "schemaVersion": "2.0.0",
  "updatedAt": "2018-07-21T08:07:11.113Z"
}